{
  "contractName": "HashStorage",
  "abi": [
    {
      "constant": true,
      "inputs": [],
      "name": "owner",
      "outputs": [
        {
          "name": "",
          "type": "address"
        }
      ],
      "payable": false,
      "stateMutability": "view",
      "type": "function"
    },
    {
      "constant": true,
      "inputs": [],
      "name": "isOwner",
      "outputs": [
        {
          "name": "",
          "type": "bool"
        }
      ],
      "payable": false,
      "stateMutability": "view",
      "type": "function"
    },
    {
      "constant": false,
      "inputs": [
        {
          "name": "newOwner",
          "type": "address"
        }
      ],
      "name": "transferOwnership",
      "outputs": [],
      "payable": false,
      "stateMutability": "nonpayable",
      "type": "function"
    },
    {
      "inputs": [],
      "payable": false,
      "stateMutability": "nonpayable",
      "type": "constructor"
    },
    {
      "anonymous": false,
      "inputs": [
        {
          "indexed": false,
          "name": "ipfshash",
          "type": "string"
        },
        {
          "indexed": false,
          "name": "filehash",
          "type": "string"
        },
        {
          "indexed": false,
          "name": "dateAdded",
          "type": "uint256"
        }
      ],
      "name": "HashAdded",
      "type": "event"
    },
    {
      "anonymous": false,
      "inputs": [
        {
          "indexed": true,
          "name": "previousOwner",
          "type": "address"
        },
        {
          "indexed": true,
          "name": "newOwner",
          "type": "address"
        }
      ],
      "name": "OwnershipTransferred",
      "type": "event"
    },
    {
      "constant": false,
      "inputs": [
        {
          "name": "_ipfshash",
          "type": "string"
        },
        {
          "name": "_filehash",
          "type": "string"
        },
        {
          "name": "_dateAdded",
          "type": "uint256"
        }
      ],
      "name": "add",
      "outputs": [],
      "payable": false,
      "stateMutability": "nonpayable",
      "type": "function"
    },
    {
      "constant": true,
      "inputs": [
        {
          "name": "_hash",
          "type": "string"
        }
      ],
      "name": "get",
      "outputs": [
        {
          "name": "",
          "type": "string"
        },
        {
          "name": "",
          "type": "string"
        },
        {
          "name": "",
          "type": "uint256"
        },
        {
          "name": "",
          "type": "bool"
        }
      ],
      "payable": false,
      "stateMutability": "view",
      "type": "function"
    }
  ],
  "bytecode": "0x608060405234801561001057600080fd5b50336000806101000a81548173ffffffffffffffffffffffffffffffffffffffff021916908373ffffffffffffffffffffffffffffffffffffffff160217905550336000806101000a81548173ffffffffffffffffffffffffffffffffffffffff021916908373ffffffffffffffffffffffffffffffffffffffff160217905550610cd1806100a06000396000f3fe608060405234801561001057600080fd5b50600436106100575760003560e01c8063693ec85e1461005c57806388abe76f1461020e5780638da5cb5b1461036a5780638f32d59b146103b4578063f2fde38b146103d6575b600080fd5b6101156004803603602081101561007257600080fd5b810190808035906020019064010000000081111561008f57600080fd5b8201836020820111156100a157600080fd5b803590602001918460018302840111640100000000831117156100c357600080fd5b91908080601f016020809104026020016040519081016040528093929190818152602001838380828437600081840152601f19601f82011690508083019250505050505050919291929050505061041a565b60405180806020018060200185815260200184151515158152602001838103835287818151815260200191508051906020019080838360005b8381101561016957808201518184015260208101905061014e565b50505050905090810190601f1680156101965780820380516001836020036101000a031916815260200191505b50838103825286818151815260200191508051906020019080838360005b838110156101cf5780820151818401526020810190506101b4565b50505050905090810190601f1680156101fc5780820380516001836020036101000a031916815260200191505b50965050505050505060405180910390f35b6103686004803603606081101561022457600080fd5b810190808035906020019064010000000081111561024157600080fd5b82018360208201111561025357600080fd5b8035906020019184600183028401116401000000008311171561027557600080fd5b91908080601f016020809104026020016040519081016040528093929190818152602001838380828437600081840152601f19601f820116905080830192505050505050509192919290803590602001906401000000008111156102d857600080fd5b8201836020820111156102ea57600080fd5b8035906020019184600183028401116401000000008311171561030c57600080fd5b91908080601f016020809104026020016040519081016040528093929190818152602001838380828437600081840152601f19601f8201169050808301925050505050505091929192908035906020019092919050505061061f565b005b610372610962565b604051808273ffffffffffffffffffffffffffffffffffffffff1673ffffffffffffffffffffffffffffffffffffffff16815260200191505060405180910390f35b6103bc610987565b604051808215151515815260200191505060405180910390f35b610418600480360360208110156103ec57600080fd5b81019080803573ffffffffffffffffffffffffffffffffffffffff1690602001909291905050506109de565b005b606080600080846002866040518082805190602001908083835b602083106104575780518252602082019150602081019050602083039250610434565b6001836020036101000a03801982511681845116808217855250505050505090500191505090815260200160405180910390206000016002876040518082805190602001908083835b602083106104c357805182526020820191506020810190506020830392506104a0565b6001836020036101000a0380198251168184511680821785525050505050509050019150509081526020016040518091039020600101546002886040518082805190602001908083835b60208310610530578051825260208201915060208101905060208303925061050d565b6001836020036101000a038019825116818451168082178552505050505050905001915050908152602001604051809103902060020160009054906101000a900460ff16828054600181600116156101000203166002900480601f0160208091040260200160405190810160405280929190818152602001828054600181600116156101000203166002900480156106095780601f106105de57610100808354040283529160200191610609565b820191906000526020600020905b8154815290600101906020018083116105ec57829003601f168201915b5050505050925093509350935093509193509193565b610627610987565b610699576040517f08c379a000000000000000000000000000000000000000000000000000000000815260040180806020018281038252600d8152602001807f4163636573732044656e6965640000000000000000000000000000000000000081525060200191505060405180910390fd5b600015156002836040518082805190602001908083835b602083106106d357805182526020820191506020810190506020830392506106b0565b6001836020036101000a038019825116818451168082178552505050505050905001915050908152602001604051809103902060020160009054906101000a900460ff1615151461076f576040517f08c379a0000000000000000000000000000000000000000000000000000000008152600401808060200182810382526024815260200180610c826024913960400191505060405180910390fd5b610777610bb9565b6040518060600160405280858152602001838152602001600115158152509050806002846040518082805190602001908083835b602083106107ce57805182526020820191506020810190506020830392506107ab565b6001836020036101000a0380198251168184511680821785525050505050509050019150509081526020016040518091039020600082015181600001908051906020019061081d929190610bdc565b506020820151816001015560408201518160020160006101000a81548160ff0219169083151502179055509050507f729750c7ab8f3db16cba8ef9847bce3e360a12328123880f6f17827cd1f2778b848484604051808060200180602001848152602001838103835286818151815260200191508051906020019080838360005b838110156108b957808201518184015260208101905061089e565b50505050905090810190601f1680156108e65780820380516001836020036101000a031916815260200191505b50838103825285818151815260200191508051906020019080838360005b8381101561091f578082015181840152602081019050610904565b50505050905090810190601f16801561094c5780820380516001836020036101000a031916815260200191505b509550505050505060405180910390a150505050565b6000809054906101000a900473ffffffffffffffffffffffffffffffffffffffff1681565b60008060009054906101000a900473ffffffffffffffffffffffffffffffffffffffff1673ffffffffffffffffffffffffffffffffffffffff163373ffffffffffffffffffffffffffffffffffffffff1614905090565b6109e6610987565b610a58576040517f08c379a000000000000000000000000000000000000000000000000000000000815260040180806020018281038252600d8152602001807f4163636573732044656e6965640000000000000000000000000000000000000081525060200191505060405180910390fd5b600073ffffffffffffffffffffffffffffffffffffffff168173ffffffffffffffffffffffffffffffffffffffff161415610afb576040517f08c379a00000000000000000000000000000000000000000000000000000000081526004018080602001828103825260138152602001807f496e76616c6964206e657720616464726573730000000000000000000000000081525060200191505060405180910390fd5b8073ffffffffffffffffffffffffffffffffffffffff166000809054906101000a900473ffffffffffffffffffffffffffffffffffffffff1673ffffffffffffffffffffffffffffffffffffffff167f8be0079c531659141344cd1fd0a4f28419497f9722a3daafe3b4186f6b6457e060405160405180910390a3806000806101000a81548173ffffffffffffffffffffffffffffffffffffffff021916908373ffffffffffffffffffffffffffffffffffffffff16021790555050565b604051806060016040528060608152602001600081526020016000151581525090565b828054600181600116156101000203166002900490600052602060002090601f016020900481019282601f10610c1d57805160ff1916838001178555610c4b565b82800160010185558215610c4b579182015b82811115610c4a578251825591602001919060010190610c2f565b5b509050610c589190610c5c565b5090565b610c7e91905b80821115610c7a576000816000905550600101610c62565b5090565b9056fe74686973206861736820616c72656164792065786973747320696e20636f6e7472616374a165627a7a72305820edaf7bfcd8722f1690212d0aa2cb32d499f6591d6d3dce46609fd2d513ac7e580029",
  "source": "pragma solidity ^0.5.8;\n\nimport \"./Ownable.sol\";\n\ncontract HashStorage is Ownable{\n    mapping (string => DocInfo) collection;\n    struct DocInfo {\n        string ipfshash;\n        uint dateAdded; //in epoch\n        bool exist; \n    }\n\n    event HashAdded(string ipfshash, string filehash, uint dateAdded);\n\n    constructor () public {\n        owner = msg.sender;\n    }\n\n    function add(string memory _ipfshash, string memory _filehash, uint _dateAdded) public onlyOwner {\n        require(collection[_filehash].exist == false, \"this hash already exists in contract\");\n        DocInfo memory docInfo = DocInfo(_ipfshash, _dateAdded, true);\n        collection[_filehash] = docInfo;\n        \n        emit HashAdded(_ipfshash, _filehash, _dateAdded);\n    }\n\n    function get(string memory _hash) public view returns (string memory, string memory, uint, bool) {\n        return (\n            _hash, \n            collection[_hash].ipfshash,\n            collection[_hash].dateAdded,\n            collection[_hash].exist\n        );\n    }\n}",
  "sourcePath": "/Users/rashinagpal/Downloads/NRC-IPFS-Blockchain/contracts/HashStorage.sol",
  "compiler": {
    "name": "solc",
    "version": "0.5.8+commit.23d335f2.Emscripten.clang"
  },
  "schemaVersion": "3.0.11",
  "updatedAt": "2019-08-07T20:10:06.563Z",
  "devdoc": {
    "methods": {}
  },
  "userdoc": {
    "methods": {}
  }
}